:0C0952000A08C0F9A4B0999282F88090C5
:0808F700F8E6F5A07F017E0088
:1008FF00E4FDFCC3ED9FEC9E5015E4FBFA0BBB002F
:0F090F00010AEB64644A70F50DBD00010C80E431
:01091E0022B6
:10088C00C2B0E51375F00A12091F24081208F77597
:10089C00A0FFD2B0C2B1E51375F00A12091FAFF078
:1008AC0074082F1208F775A0FFD2B1E51475F00A81
:1008BC0012091F2408F8E6F5A07F017E000208FF4C
:1008CC0020B6130513D3E513648094E34003E4F5D9
:1008DC001320B61680FB20B7111513C3E5136480E3
:0B08EC009480500375136330B7FD22A9
:100941007FF47E011208FF1208CC12088C05128078
:01095100F6AF
:03000000020800F3
:0C080000787FE4F6D8FD758114020847EB
:10091F00C2D530F707B2D563F0FF05F030E70CB260
:10092F00D5F4048463F0FF05F080018430D502F420
:02093F00042290
:10080C00020941E493A3F8E493A34003F68001F2B8
:10081C0008DFF48029E493A3F85407240CC8C333ED
:10082C00C4540F4420C8834004F456800146F6DFBC
:10083C00E4800B0102040810204080900952E47EF1
:10084C00019360BCA3FF543F30E509541FFEE493B1
:10085C00A360010ECF54C025E060A840B8E493A378
:10086C00FAE493A3F8E493A3C8C582C8CAC583CAA3
:10087C00F0A3C8C582C8CAC583CADFE9DEE780BE5B
:01095E000098
:00000001FF
